:10000000D5EF12F00000000000EF00F0000000004B
:0A0010000000000000000000F3D71C
:0E001C0000019CB102D08B9801D08B8812009D
:0E002A0000019CB102D08B9601D08B86120093
:0E00380000019CB102D08D9601D08D86120081
:0E00460000019CB102D0899401D0898412007F
:0E00540000019CB102D08B9C01D08B8C12005D
:0E00620000019CB102D08B9401D08B8412005F
:0E00700000019CB102D08B9A01D08B8A120045
:0E007E0000019CB102D08B9E01D08B8E12002F
:0E008C0000019CB102D08A9201D08A8212003B
:0E009A0000019CB102D08D9401D08D84120023
:0E00A80000019CB102D08F9201D08F82120015
:0E00B60000019CB102D08F9401D08F84120003
:0E00C40000019CB102D08B9801D08B881200F5
:0E00D20000019CB102D08B9601D08B861200EB
:0E00E00000019CB102D08A9401D08A841200E3
:0E00EE0000019CB102D08B9801D08B881200CB
:0E00FC0000019CB102D08B9601D08B861200C1
:0E010A0000019CB102D08F9001D08F801200B6
:0E01180000019CB102D08B9A01D08B8A12009C
:0E01260000019CB102D08B9801D08B88120092
:0E01340000019CB102D08B9801D08B88120084
:0E01420000019CB102D08B9601D08B8612007A
:0E01500000019CB102D08B9201D08B82120074
:0E015E0000019CB102D08B9A01D08B8A120056
:0E016C0000019CB102D08D9001D08D80120058
:10017A000F0121B302D00000FBD79CC01CFF120064
:0E018A00ACB202D00000FCD79CC0ADFF12004A
:0E01980000019CB102D08B9001D08B80120030
:0E01A60000019CB102D0899001D08980120026
:0E01B40000019CB102D0899801D08988120008
:0E01C20000019CB102D0899201D08982120006
:0E01D00000019CB102D08B9601D08B861200EC
:0E01DE0000019CB102D08D9201D08D821200E2
:0E01EC0000019CB102D08B9801D08B881200CC
:0E01FA0000019CB102D08B9E01D08B8E1200B2
:0E02080000019CB102D08A9001D08A801200C1
:0E02160000019CB102D08B9601D08B861200A5
:0E02240000019CB102D08B9C01D08B8C12008B
:10023200F250026EF29E0500FF6A0150FE6E0050FF
:08024200FD6E02BEF28E1200F7
:10024A0068B409D01F0E6614016E0150000A03E15A
:0A025A00010E006E01D0006A1200D0
:10026400C7B409D01F0EC514016E0150000A03E182
:0A027400010E006E01D0006A1200B6
:0A027E00000E82BE010E006E120099
:0A028800000E84B4010E006E120097
:0A029200000E82BC010E006E120087
:0A029C00000E82B6010E006E120083
:0A02A600000E80B4010E006E12007D
:0A02B000000E82B6010E006E12006F
:0A02BA00000E81B2010E006E12006A
:0A02C400000E80B8010E006E12005B
:0A02CE00000E82B8010E006E12004F
:0A02D800000E84B6010E006E120045
:0A02E200000E82B8010E006E12003B
:0A02EC00000E82BC010E006E12002D
:0A02F600000E82B6010E006E120029
:1003000015C096F016C097F017C098F018C099F075
:10031000C582C5A21FD0155016101710181019E06D
:10032000000196519711981199110CE129C0E1FF34
:100330002AC0E2FF060EE66E27C000F028C001F0DA
:1003400078DF08D0010E0001965F000E975B985B86
:06035000995BDFD71200EB
:0A035600000E84B2010E006E1200CA
:0A036000000E82BA010E006E1200BA
:0A036A00000E82B4010E006E1200B6
:0A037400000E82B6010E006E1200AA
:0A037E00000E82B8010E006E12009E
:04038800C584120016
:0A038C00000E82B8010E006E120090
:040396006684120067
:10039A0019C096F01AC097F01BC098F01CC099F0CB
:1003AA00668266A21FD019501A101B101C1019E081
:1003BA00000196519711981199110CE12DC0E1FF96
:1003CA002EC0E2FF060EE66E2BC000F02CC001F034
:1003DA002BDF08D0010E0001965F000E975B985B39
:0603EA00995BDFD7120051
:1003F000A19A96C06AFF19C097F01AC098F01BC066
:1004000099F01CC09AF068A421D019501A101B1042
:100410001C101BE000019751981199119A110EE1DF
:100420002DC0E1FF2EC0E2FF040EE66E2BC000F0EF
:100430002CC001F0FEDE010E006E3AD0010E00016C
:10044000975F000E985B995B9A5BDDD719C097F0B8
:100450001AC098F01BC099F01CC09AF0A1BA21D024
:1004600019501A101B101C101BE000019751981115
:1004700099119A110EE12DC0E1FF2EC0E2FF040E8A
:10048000E66E2BC000F02CC001F0D3DE010E006E32
:100490000FD0010E0001975F000E985B995B9A5B8D
:1004A000DDD766BC02D0006A03D06684020E006EFF
:0204B000120038
:1004B2000B820BAE63EF02F003680268016800680A
:0804C2000A360232FF0E12009F
:0E04CA00026A016A006A086A036A000E1200E4
:1004D8000B840BAE77EF02F0010E036E026A016A1D
:0A04E800006A0A360232FF0E12000D
:0804F2000AAE029E000E12008A
:1004FA0019C098F01AC099F01BC09AF01CC09BF062
:10050A00A19A6686A1BA1FD019501A101B101C1086
:10051A0019E00001985199119A119B110CE12DC013
:10052A00E1FF2EC0E2FF030EE66E2BC000F02CC0E6
:10053A0001F07ADE08D0010E0001985F000E995B87
:10054A009A5B9B5BDFD700016ACF97F09651000A4E
:10055A0002E1668A01D0669AA19A668819C098F063
:10056A001AC099F01BC09AF01CC09BF0A1BA1FD008
:10057A0019501A101B101C1019E0000198519911FA
:10058A009A119B110CE12DC0E1FF2EC0E2FF030E70
:10059A00E66E2BC000F02CC001F046DE08D0010E3A
:1005AA000001985F000E995B9A5B9B5BDFD797C04F
:0405BA0000F012003B
:0A05BE00000E81B4010E006E120061
:0A05C800000E86B4010E006E120052
:0A05D200000E82BA010E006E120046
:0A05DC00000E86B0010E006E120042
:0A05E600000E86B2010E006E120036
:1005F00015C098F016C099F017C09AF018C09BF07B
:100600009E96C5869EB61FD015501610171018104E
:1006100019E00001985199119A119B110CE129C020
:10062000E1FF2AC0E2FF030EE66E27C000F028C0FB
:1006300001F0FFDD08D0010E0001985F000E995B0C
:100640009A5B9B5BDFD70001C9CF97F09651000AF8
:1006500002E1C58A01D0C59A9E96C58815C098F05A
:1006600016C099F017C09AF018C09BF09EB61FD024
:10067000155016101710181019E000019851991113
:100680009A119B110CE129C0E1FF2AC0E2FF030E81
:10069000E66E27C000F028C001F0CBDD08D0010EC7
:1006A0000001985F000E995B9A5B9B5BDFD797C058
:0406B00000F0120044
:1006B4009E9696C0C9FF15C097F016C098F017C053
:1006C40099F018C09AF0C7A421D01550161017102D
:1006D40018101BE000019751981199119A110EE11D
:1006E40029C0E1FF2AC0E2FF040EE66E27C000F035
:1006F40028C001F09CDD010E006E3AD0010E00010D
:10070400975F000E985B995B9A5BDDD715C097F0F5
:1007140016C098F017C099F018C09AF09EB621D070
:1007240015501610171018101BE00001975198115E
:1007340099119A110EE129C0E1FF2AC0E2FF040ECB
:10074400E66E27C000F028C001F071DD010E006ED6
:100754000FD0010E0001975F000E985B995B9A5BC6
:10076400DDD7C5BC02D0006A03D0C584020E006E7A
:02077400120071
:0A077600000E82B6010E006E1200A4
:0A078000000E82B8010E006E120098
:0A078A00000E82BE010E006E120088
:100794001DCF01F00F0122A302D02299228901C0AA
:0407A40000F012004F
:0A07A800000EACB2010E006E12004C
:0A07B200000E81B0010E006E12006F
:1007BC0015C098F016C099F017C09AF018C09BF0AD
:1007CC000001966B976B9751120802E196518E08B7
:1007DC0008E342DD005201E004D00001964B972B58
:1007EC00F2D70001120E975D02E18F0E965D03E3C6
:1007FC007B0E006E24D0C580C5A020D015501610DD
:10080C00171018101AE0985199119A119B110EE1BA
:10081C0029C0E1FF2AC0E2FF050EE66E27C000F0FA
:10082C0028C001F000DD010E006E09D0010E0001A0
:10083C00985F000E995B9A5B9B5BDED7006A120097
:0C084C00000E0F0121B3010E006E12001F
:0A085800000EA4BA010E006E12009B
:0A086200000E82BA010E006E1200B3
:0A086C00000E80B2010E006E1200B3
:0A087600000E9EBA010E006E120083
:10088000AECF01F0ABA202D0AB98AB8801C000F0B4
:02089000120054
:0A089200000E82B0010E006E12008D
:0A089C00000E82B8010E006E12007B
:0A08A600000E82B2010E006E120077
:0A08B000000E84B0010E006E12006D
:1008BA0019C098F01AC099F01BC09AF01CC09BF09E
:1008CA000001966B976B9751120802E196518E08B8
:1008DA0008E3B6DC005201E004D00001964B972BE6
:1008EA00F2D70001120E975D02E18F0E965D03E3C7
:1008FA007B0E006E24D0668066A020D019501A1094
:10090A001B101C101AE0985199119A119B110EE1B3
:10091A002DC0E1FF2EC0E2FF050EE66E2BC000F0EF
:10092A002CC001F081DC010E006E09D0010E00011D
:10093A00985F000E995B9A5B9B5BDED7006A120098
:0A094A00000E80B0010E006E1200D6
:0A095400000E82B6010E006E1200C4
:10095E000CB0F1EF04F00CA297EF05F00E6A000E4A
:10096E00026408EF05F0F00E0214D8A4D3EF04F0E1
:10097E00023A01380F0B02260138F00B016E0038D7
:10098E000F0B01260038F00B006E08380F0B0026F7
:10099E000838F00B086E0E84D89002BEECEF04F00F
:1009AE0008360036013602360E2A02BEECEF04F08F
:1009BE0008360036013602360E2A02BEECEF04F07F
:1009CE0008360036013602360E2A0E5003648DEFBD
:1009DE0005F0035E0BBC08AE92EF05F0D880800EDA
:1009EE0008640030000E002201220222D8A092EFED
:1009FE0005F0023201320032034A97EF05F092EF12
:100A0E0005F001C002F000C001F008C000F0086A55
:100A1E00000E0E8602643FEF05F0F00E0214D8A40D
:100A2E0027EF05F0023A01380F0B02260138F00BC2
:100A3E00016E00380F0B01260038F00B006E0E848D
:100A4E00D89002BEECEF04F00036013602360E2AC4
:100A5E0002BEECEF04F00036013602360E2A02BE5C
:100A6E00ECEF04F00036013602360E2AECEF04F0FD
:100A7E0001C002F000C001F0006A000E0E960E8852
:100A8E0002646CEF05F0F00E0214D8A457EF05F0D7
:100A9E00023A01380F0B02260138F00B016E0E845C
:100AAE00D89002BEECEF04F0013602360E2A02BEDA
:100ABE00ECEF04F0013602360E2A02BEECEF04F023
:100ACE00013602360E2AECEF04F001C002F0016A84
:100ADE00000E0E8602649CEF05F0F00E0214D8A4F0
:100AEE007BEF05F0023A0E84D89002BEECEF04F0D4
:100AFE0002360E2A02BEECEF04F002360E2A02BEB9
:100B0E00ECEF04F002360E2AECEF04F0010E0C6E40
:100B1E00DCDC9FEF05F0020E0C6EE4DC9FEF05F0BF
:100B2E00040E0C6EBFDC9FEF05F0080E0C6EC6DCDB
:020B3E001200A3
:100B4000640E2F6E020E306E000E316E000E326E8D
:100B5000BC0E3B6E070E3C6E000E3D6E000E3E6EF0
:100B6000000E3F6E030E406E000E416E000E426E90
:100B7000F00E336E050E346E960E356E000E366E28
:100B8000B40E376E060E386E960E396E000E3A6E43
:100B9000880E5C6E030E5D6E000E5E6E000E5F6E64
:100BA000949894968B988B9694889486C79EC79CAD
:060BB000380EC66E1200B3
:080BB6000B6A0B86FF0E120012
:100BBE008A0E00016D6F010E6E6F9C0E6F6F000E30
:100BCE00706F800E696F080E6A6F000E6B6F000EED
:100BDE006C6F760E656F080E666F000E676F000EF7
:100BEE00686FA80E616F070E626F000E636F000EC6
:100BFE00646FAC8A900EAB6E948E949C9EAA03D0BA
:080C0E00AECF00F0FBD712008D
:100C16007A0E00016D6F010E6E6F9C0E6F6F000EE7
:100C2600706F940E696F070E6A6F000E6B6F000E81
:100C36006C6F580E656F080E666F000E676F000EBC
:100C4600686F4C0E616F080E626F000E636F000EC8
:100C5600646F0F01218B900E226F98849892A4AA3C
:0A0C660003D01DCF00F0FBD71200F1
:020C7000120070
:100C72000001886B896B58C000F059C001F019EC73
:100C820001F000C088F0000E0001896F88C000F0FA
:060C920089C001F0120010
:100C980021D0CF0EAF6EAC948EDF6BD0670EAF6EE7
:100CA800AC9489DF66D0CF0EAF6EAC8484DF61D0A0
:100CB800670EAF6EAC847FDF5CD0440EAF6EAC8441
:100CC8007ADF57D0220EAF6EAC8475DF52D0060E95
:100CD800006E58D00001000E006E8B1908E100501C
:100CE8008A1905E1120E891902E18851C00AD1E07A
:100CF800000E006E8B1908E100508A1905E1250ED7
:100D0800891902E18851800AC9E0000E006E8B192A
:100D180008E100508A1905E14B0E891902E1885152
:100D2800000AC1E0000E006E8B1908E100508A1914
:100D380005E1960E891902E18851000AB9E0000E12
:100D4800006E8B1908E100508A1905E1E10E891936
:100D580002E18851000AB1E08B51000A08E18A518A
:100D6800010A05E18951C20A02E18851000AAAE094
:100D7800AED78A0E476E010E486E9C0E496E000E65
:060D88004A6E006A120031
:100D8E0088C0F6FF89C0F7FF8AC0F8FF0900F5CFCB
:100D9E0058F00900F5CF59F00900F5CF5AF00900C7
:100DAE00F5CF5BF0040E00018825F66E000E89214A
:100DBE00F76E000E8A21F86E0900F5CF50F009008B
:100DCE00F5CF51F00900F5CF52F00900F5CF53F0F1
:100DDE00080E8825F66E000E8921F76E000E8A2108
:100DEE00F86E0900F5CF54F00900F5CF55F0090063
:100DFE00F5CF56F00900F5CF57F00C0E8825F66E9C
:100E0E00000E8921F76E000E8A21F86E0900F5CFCB
:100E1E004CF00900F5CF4DF00900F5CF4EF009006A
:100E2E00F5CF4FF0100E8825F66E000E8921F76E65
:100E3E00000E8A21F86E0900F5CF43F00900F5CFB8
:100E4E0044F00900F5CF45F00900F5CF46F0120049
:100E5E0038D00F0120870D0E1F6F040E1E6F2185D7
:100E6E00D3DE7ED00F012087060E1F6F820E1E6FFF
:100E7E002185CADE75D00F012087030E1F6F400E2D
:100E8E001E6F2185C1DE6CD00F012087010E1F6FF2
:100E9E00A00E1E6F2185B8DE63D00F012087010ED4
:100EAE001F6F150E1E6F2185AFDE5AD00F012087E2
:100EBE001F6B8A0E1E6F2185A7DE52D0060E006EA6
:100ECE0058D0000E006E00018B1908E100508A19EF
:100EDE0005E1120E891902E18851C00ABAE0000E2E
:100EEE00006E8B1908E100508A1905E1250E89194B
:100EFE0002E18851800AB6E0000E006E8B1908E1FF
:100F0E0000508A1905E14B0E891902E18851000A39
:100F1E00B2E0000E006E8B1908E100508A1905E14F
:100F2E00960E891902E18851000AAEE0000E006E9D
:100F3E008B1908E100508A1905E1E10E891902E1C9
:100F4E008851000AAAE08B51000A08E18A51010A71
:100F5E0005E18951C20A02E18851000AA7E0AED725
:100F6E007A0E476E010E486E9C0E496E000E4A6E4A
:040F7E00006A1200F3
:100F820088C08BF089C08CF08AC08DF00BD0A00E87
:100F9200C86ED5DD44D0280EC86ED1DD40D0040E17
:100FA200006E3FD08BC0F6FF8CC0F7FF8DC0F8FFFC
:100FB2000900F5CF01F00900F5CF02F00900F5CFE5
:100FC20003F00900F5CF04F00450000A08E10350D1
:100FD200010A05E10250860A02E10150A00AD7E0A7
:100FE2008BC0F6FF8CC0F7FF8DC0F8FF0900F5CF6C
:100FF20001F00900F5CF02F00900F5CF03F0090076
:10100200F5CF04F00450000A08E10350060A05E196
:1010120002501A0A02E10150800ABDE0C0D7000E58
:04102200006E12004A
:1010260088C08BF089C08CF08AC08DF00BD0A00EE2
:10103600C86E83DD44D0280EC86E7FDD40D0040E16
:10104600006E3FD08BC0F6FF8CC0F7FF8DC0F8FF57
:101056000900F5CF01F00900F5CF02F00900F5CF40
:1010660003F00900F5CF04F00450000A08E103502C
:10107600010A05E10250860A02E10150A00AD7E002
:101086008BC0F6FF8CC0F7FF8DC0F8FF0900F5CFC7
:1010960001F00900F5CF02F00900F5CF03F00900D1
:1010A600F5CF04F00450000A08E10350060A05E1F2
:1010B60002501A0A02E10150800ABDE0C0D7000EB4
:0410C600006E1200A6
:1010CA0088C08BF089C08CF08AC08DF00BD0A00E3E
:1010DA00C86E31DD44D0280EC86E2DDD40D0040E16
:1010EA00006E3FD08BC0F6FF8CC0F7FF8DC0F8FFB3
:1010FA000900F5CF01F00900F5CF02F00900F5CF9C
:10110A0003F00900F5CF04F00450000A08E1035087
:10111A00010A05E10250860A02E10150A00AD7E05D
:10112A008BC0F6FF8CC0F7FF8DC0F8FF0900F5CF22
:10113A0001F00900F5CF02F00900F5CF03F009002C
:10114A00F5CF04F00450000A08E10350060A05E14D
:10115A0002501A0A02E10150800ABDE0C0D7000E0F
:04116A00006E120001
:10116E0021D0CF0EAF6EAC9423DD6BD0670EAF6E79
:10117E00AC941EDD66D0CF0EAF6EAC8419DD61D09F
:10118E00670EAF6EAC8414DD5CD0440EAF6EAC84D3
:10119E000FDD57D0220EAF6EAC840ADD52D0060E94
:1011AE00006E58D00001000E006E8B1908E1005041
:1011BE008A1905E1120E891902E18851C00AD1E09F
:1011CE00000E006E8B1908E100508A1905E1250EFC
:1011DE00891902E18851800AC9E0000E006E8B1950
:1011EE0008E100508A1905E14B0E891902E1885178
:1011FE00000AC1E0000E006E8B1908E100508A193A
:10120E0005E1960E891902E18851000AB9E0000E37
:10121E00006E8B1908E100508A1905E1E10E89195B
:10122E0002E18851000AB1E08B51000A08E18A51AF
:10123E00010A05E18951C20A02E18851000AAAE0B9
:10124E00AED78A0E476E010E486E9C0E496E000E8A
:06125E004A6E006A120056
:1012640021D0CF0EAF6EAC94A8DC6BD0670EAF6EFE
:10127400AC94A3DC66D0CF0EAF6EAC849EDC61D0A0
:10128400670EAF6EAC8499DC5CD0440EAF6EAC8458
:1012940094DC57D0220EAF6EAC848FDC52D0060E95
:1012A400006E58D00001000E006E8B1908E100504A
:1012B4008A1905E1120E891902E18851C00AD1E0A8
:1012C400000E006E8B1908E100508A1905E1250E05
:1012D400891902E18851800AC9E0000E006E8B1959
:1012E40008E100508A1905E14B0E891902E1885181
:1012F400000AC1E0000E006E8B1908E100508A1943
:1013040005E1960E891902E18851000AB9E0000E40
:10131400006E8B1908E100508A1905E1E10E891964
:1013240002E18851000AB1E08B51000A08E18A51B8
:10133400010A05E18951C20A02E18851000AAAE0C2
:10134400AED78A0E476E010E486E9C0E496E000E93
:061354004A6E006A12005F
:10135A0049C0E1FF4AC0E2FF88C0E9FF89C0EAFF4D
:10136A00EECFE6FF47C000F048C001F019EC01F0EB
:04137A00006A1200F3
:10137E000450000A12E10550000A0FE10650000A5F
:10138E000CE10750000A09E1FF0E006EFF0E016E20
:10139E007F0E026EFF0E036EA8D0086A096A075010
:1013AE00D8B46AEF0AF00350D8B46FEF0AF00250C7
:1013BE0006180A6E028E068E0E6A02C008F001C072
:1013CE000CF000C00DF004500D5E0550D8A0053C89
:1013DE000C5E0650D8A0063C085E086A0C6A0D6AC0
:1013EE00D8A001EF0AF0D890023201320032083252
:1013FE00010E0E6E0750035ED8A00EEF0AF07E0EA1
:10140E000E240326D8B074EF0AF014EF0AF07E0E05
:10141E000E240326D8A079EF0AF0180E0B6E0D36A7
:10142E000C3608360036013602360E360450005E93
:10143E000550D8A0053C015E0650D8A0063C025EC1
:10144E0006340E120EA02FEF0AF00D803AEF0AF0BE
:10145E00045000260550D8B0053C01260650D8B0E1
:10146E00062802260D900B2E16EF0AF060EF0AF0FA
:10147E00D8900036013602360E360450005E055006
:10148E00D8A0053C015E0650D8A0063C025E06348C
:10149E000E10010B0D26D8B00C2AD8B4082AD8A4E9
:1014AE0060EF0AF008320C320D32032AD8B474EF12
:1014BE000AF00AAE089E0850026E0C50016E0D50D6
:1014CE00006E7CEF0AF0010EDBEC05F07CEF0AF00B
:1014DE00020E65EC02F07CEF0AF0040E59EC02F0FD
:0C14EE007CEF0AF0080E6CEC02F012001B
:1014FA00025006180E6E086A096A0B6A03500764DE
:10150A0070EF0BF006500A6E068E028E03500B6EB9
:10151A000750036E000E0B64C0EF0AF00B50075E13
:10152A00D8B461EF0BF0070E07642FEF0BF0075EDC
:10153A0000C008F001C000F002C001F0026A074EC4
:10154A0061EF0BF0076404EF0BF0075E00C008F0D0
:10155A0001C000F0016A074E61EF0BF00764E2EF89
:10156A000AF0075E00C008F0006A074E61EF0BF050
:10157A000764C9EF0AF00AC002F005C001F004C00E
:10158A0000F0086A8DEF0CF0030E0764D4EF0AF03E
:10159A00075E08380F0B086E074E61EF0BF0D89004
:1015AA000832074E61EF0BF0D8900832074E61EF10
:1015BA000BF0D890083261EF0BF0030E0764F3EFDB
:1015CA000AF0075E08380F0B086E0038F00B082681
:1015DA0000380F0B006E074E61EF0BF0D890003207
:1015EA000832074E61EF0BF0D89000320832074EEE
:1015FA0061EF0BF0D8900032083261EF0BF0030E66
:10160A0007641BEF0BF0075E08380F0B086E0038F3
:10161A00F00B082600380F0B006E0138F00B00267D
:10162A0001380F0B016E074E61EF0BF0D8900132B3
:10163A0000320832074E61EF0BF0D89001320032C7
:10164A000832074E61EF0BF0D890013200320832AF
:10165A0061EF0BF0030E07644CEF0BF0075E0838DE
:10166A000F0B086E0038F00B082600380F0B006EBF
:10167A000138F00B002601380F0B016E0238F00B0F
:10168A00012602380F0B026E074E61EF0BF0D8905D
:10169A000232013200320832074E61EF0BF0D89065
:1016AA000232013200320832074E61EF0BF0D89055
:1016BA000232013200320832096A000E0EAE55EFCC
:1016CA000CF0081E001E011E021E082A002201221A
:1016DA00022255EF0CF00750D8A476EF0BF08DEFED
:1016EA000CF0096A02C00AF0028E068E0750035CEB
:1016FA00076ED8B448EF0CF0070E076416EF0CF02B
:10170A00075E0450096E0550046E0650056E066A9F
:10171A00074E48EF0CF0070E0764EBEF0BF0075E7D
:10172A000450096E0550046E056A074E48EF0CF026
:10173A00070E0764C9EF0BF0075E0450096E046ACE
:10174A00074E48EF0CF0070E0764B0EF0BF00AC023
:10175A0002F08DEF0CF0030E0764BBEF0BF0075E8F
:10176A0009380F0B096E074E48EF0CF0D890093272
:10177A00074E48EF0CF0D8900932074E48EF0CF0AC
:10178A00D890093248EF0CF0030E0764DAEF0BF039
:10179A00075E09380F0B096E0438F00B0926043866
:1017AA000F0B046E074E48EF0CF0D8900432093242
:1017BA00074E48EF0CF0D89004320932074E48EF32
:1017CA000CF0D8900432093248EF0CF0030E07648B
:1017DA0002EF0CF0075E09380F0B096E0438F00BA4
:1017EA00092604380F0B046E0538F00B0426053859
:1017FA000F0B056E074E48EF0CF0D89005320432F5
:10180A000932074E48EF0CF0D890053204320932FB
:10181A00074E48EF0CF0D89005320432093248EFEF
:10182A000CF0030E076433EF0CF0075E09380F0B58
:10183A00096E0438F00B092604380F0B046E0538BC
:10184A00F00B042605380F0B056E0638F00B05263B
:10185A0006380F0B066E074E48EF0CF0D89006328A
:10186A00053204320932074E48EF0CF0D89006329E
:10187A00053204320932074E48EF0CF0D89006328E
:10188A00053204320932086A000E0EAE55EF0CF02A
:10189A00091E041E051E061E092A04220522062206
:1018AA00095008260450002205500122065002223F
:1018BA000EBE6CEF0CF0D8A07BEF0CF002320132B6
:1018CA0000320832033E7BEF0CF087EF0CF0D8B001
:1018DA0081EF0CF0000E081E001E011E021E082ACF
:1018EA000022012202220A7E81EF0CF0010E0C6E08
:1018FA00AFEC04F08FEF0CF0020E0C6EAFEC04F0BC
:10190A008FEF0CF0040E0C6E59EC02F08FEF0CF016
:06191A00000E0C6E12002D
:1019200088C004F089C005F004C002F005C003F0CF
:10193000044A052A8AC000F08BC001F000018A4BDE
:101940008B2B00C0E9FF01C0EAFF02C0E1FF03C02A
:10195000E2FFEECFE6FF02C0E9FF03C0EAFFEE526E
:0E19600001E0E2D788C000F089C001F012005B
:10196E00086A096A000E076203643CEF0DF002502C
:10197E0006180A6E075003267E0ED8A0CDEF0CF087
:10198E00035ED8B041EF0DF0D1EF0CF0035ED8A09E
:10199E0046EF0DF0028E068E02C00EF001C00BF067
:1019AE0000C00DF000500402F4CF0CF001500502FF
:1019BE00F4CF00F0F3CF08F00402F3500C26F450ED
:1019CE000822000E00220D500502F3500C26F45092
:1019DE000822000E002202500402F3500826F45092
:1019EE00002202500502016A000E0122F350002669
:1019FE00F45001220D500602F3500826F450002236
:101A0E00026A000E012202220B500602F35000263B
:101A1E00F4500122000E02220E500602F35001264F
:101A2E00F450022202BE24EF0DF0083600360136C5
:101A3E0002360306D8B446EF0DF037EF0DF0D8801E
:101A4E00800E08640030000E002201220222D8A06F
:101A5E0037EF0DF0023201320032034A41EF0DF042
:101A6E000AAE029E000E49EF0DF0010E65EC02F07B
:101A7E0049EF0DF0020E59EC02F049EF0DF0040E95
:061A8E006CEC02F01200F6
:101A94000001906B916B89C08EF08AC08FF088C072
:101AA40000F0003600904EC0E1FF4FC0E2FF00C0DE
:101AB400E6FF4CC000F04DC001F019EC01F00050FD
:101AC40000019013000E91138BC000F08CC001F044
:101AD400010E8B5F000E8C5B0050011018E04EC0AD
:101AE400E1FF4FC0E2FF8EC0E9FF8FC0EAFFEECFF7
:101AF400E6FF4CC000F04DC001F019EC01F00050BD
:101B040000019013000E91138E4B8F2BDDD78D5156
:101B1400000A06E150C000F051C001F019EC01F0D8
:101B240000018D51010A06E154C000F055C001F0D6
:0E1B340019EC01F090C000F091C001F0120019
:101B42000001906B916B89C08EF08AC08FF088C0C3
:101B520000F00036009000804EC0E1FF4FC0E2FF6F
:101B620000C0E6FF4CC000F04DC001F019EC01F0DE
:101B7200005000019013000E9113010E8B5F000EB6
:101B82008C5B8B518C1116E045C0E1FF46C0E2FF31
:101B9200010EE66E43C000F044C001F019EC01F002
:101BA2008EC0E1FF8FC0E2FF00C0E6FF00018E4B56
:101BB2008F2BE3D745C0E1FF46C0E2FFE66A43C090
:101BC20000F044C001F019EC01F08EC0E1FF8FC0BB
:101BD200E2FF00C0E6FF00018D51000A06E150C09D
:101BE20000F051C001F019EC01F000018D51010A21
:101BF20006E154C000F055C001F019EC01F090C0AC
:081C020000F091C001F0120096
:101C0A000050086E0150006E0250016E0350026EC1
:101C1A00036A0B6A0C6A9E0E036E0A6A020E0C6E47
:061C2A00AFEC04F0120013
:101C30000A6A0350D8A40A800750D8A40A820A501E
:101C4000D8B47BEF0EF0030AD8B434EF0EF00AB02C
:101C50002FEF0EF006AE79EF0EF077EF0EF002AE3A
:101C600077EF0EF079EF0EF00250800B0A6E029EB5
:101C70000650800B069E0A18D8B445EF0EF00A50A5
:101C8000D8B477EF0EF079EF0EF00750035CD8B4BC
:101C90004FEF0EF0D8A06BEF0EF071EF0EF0065084
:101CA000025CD8B459EF0EF0D8A06BEF0EF071EFD4
:101CB0000EF00550015CD8B463EF0EF0D8A06BEFC6
:101CC0000EF071EF0EF00450005CD8B47BEF0EF014
:101CD000D8B071EF0EF00A52D8B479EF0EF077EF6A
:101CE0000EF00A52D8B477EF0EF079EF0EF0D880EC
:0E1CF0001200D8901200D880D8841200120082
:101CFE000D6A086A0050D8B4000C04180A6E0ABEA9
:101D0E000D1E0B6A04AE02D0041E042A00AE02D0D1
:101D1E00001E002A005004100A6E0ABE1FD0045086
:101D2E00085E003600340836045008260036060ECB
:101D3E000C6E00340836045000B0085E00A0082671
:101D4E0000360C2EF6D700A008260BB015D00DAE1F
:101D5E00000C001E002A081E082A000C04AE09D032
:101D6E0000BE04D00050086E006AF1D7006A002A47
:101D7E00000C001E0B2AD3D7082A0450085CD8A4E6
:0E1D8E00E6D7086A002A00AEE2D7FF0C12006A
:101D9C007BC07EF07CC07FF00D0E0001606F0A0EE0
:101DAC00806F3AD07EC088F07FC089F0ADEC09F02E
:101DBC003ED07EC0E9FF7FC0EAFFEE520AE07EC053
:101DCC0088F07FC089F0ADEC09F000017E4B7F2BD1
:101DDC00F0D72DD07EC0E9FF7FC0EAFFEE520AE0BB
:101DEC007EC088F07FC089F0ADEC09F000017E4B1D
:101DFC007F2BF0D70001600E886F000E896FADEC61
:101E0C0009F0800E0001886F000E896FADEC09F0AF
:101E1C000ED0060E006E0CD000017D51000AC2E0FF
:101E2C007D51010AC6E07D51020AD4E0F2D7006A66
:021E3C00120092
:101E3E002FD07CC088F07DC089F07EC08AF07FC034
:101E4E008BF032EC09F032D07CC088F07DC089F086
:101E5E007EC08AF07FC08BF0B7EC08F027D07CC034
:101E6E0088F07DC089F07EC08AF07FC08BF02FECA9
:101E7E0007F01CD07CC088F07DC089F07EC08AF04F
:101E8E007FC08BF04CEC06F011D0010E006E0ED020
:101E9E0000017B51000ACDE07B51010AD5E07B5158
:0E1EAE00020ADDE07B51100AE5E0EFD71200DA
:101EBC001ED07CC088F07DC089F07EC08AF013EC07
:101ECC0008F020D07CC088F07DC089F07EC08AF0FC
:101EDC00C1EC07F017D07CC088F07DC089F07EC0C3
:101EEC008AF065EC08F00ED0010E006E0BD00001EC
:101EFC007B51000ADEE07B51010AE4E07B51020ACF
:061F0C00EAE0F2D712002A
:101F1200520E0B6E2B0E0C6E000E0D6E0D2EFED79A
:0C1F22000C2EFCD70B2EFAD7000012008A
:101F2E00E30E00017B6F39EC06F04BC088F07B0EA0
:101F3E00896F000E8A6F010E8B6F000E8C6F010E73
:101F4E008D6FA1DD4BC088F07B0E0001896F000EF6
:101F5E008A6F030E8B6F000E8C6F8D6BEBDD0001A5
:101F6E007E6B7F6B806B816B7BC07EF0000E7F6F14
:101F7E00806F816F80C003F07FC002F07EC001F0E1
:101F8E00006A00C07EF001C07FF002C080F003C086
:101F9E0081F07C510010056E01C006F002C007F002
:101FAE0003C008F0000E06120712081205C07EF0DC
:101FBE0006C07FF007C080F008C081F007C003F0B4
:101FCE0006C002F005C001F0006A00C07EF001C03C
:101FDE007FF002C080F003C081F07D510010056ECD
:101FEE0001C006F002C007F003C008F0000E061292
:101FFE000712081205C07EF006C07FF007C080F001
:10200E0008C081F006C000F007C001F008C002F061
:10201E00036A00C07EF001C07FF002C080F003C0F2
:10202E0081F0FC0E0016FF0E0116000E02160316AE
:10203E0000C07EF001C07FF002C080F003C081F0CE
:10204E00DDDD520E046EB80E056E2F0E066E860E78
:10205E00076E86DC000E046E000E056E000E066E18
:10206E008F0E076EBFEC09F0660E046E660E056EDF
:0E207E00BB0E066E840E076E7DEC0AF012009B
:10208C0081C04BF07EC088F07FC089F080C08AF0A0
:10209C00C7EC06F07BC088F07CC089F07DC08AF06C
:0620AC0038EC06F0120002
:1020B200090E0B6E1E0E0C6EE40E0D6E0D2EFED76B
:0C20C2000C2EFCD70B2EFAD700001200E9
:1020CE000001866B876B7BC082F07CC083F07DC085
:1020DE0084F07EC085F08551FF0A08E18451FF0A25
:1020EE0005E18351FF0A02E18251FF0A0CE17FC034
:1020FE0088F080C089F0210E8A6F000E8B6F09DC8C
:10210E00030E006EEDD1010E606F84AF0ED0800E07
:10211E008419006E00C084F0602B7FC0E1FF80C088
:10212E00E2FF2D0EE66E7F4B802B000E006E8519A2
:10213E0008E10050841905E10050831902E1825133
:10214E00000A0CE17FC088F080C089F0250E8A6FEE
:10215E00000E8B6F90EC0CF0006AC2D18551FF0A15
:10216E0008E18451000A05E18351000A02E182511F
:10217E00000A0DE17FC088F080C089F01D0E8A6FC5
:10218E00000E8B6F90EC0CF060C000F0A9D1000E29
:10219E00046E000E056E000E066E7F0E076E82C078
:1021AE0000F083C001F084C002F085C003F039DD79
:1021BE00010ED8B0000E006E00521CE082C000F07E
:1021CE0083C001F084C002F085C003F0000E046EDF
:1021DE00000E056E200E066E820E076EB7EC0CF02A
:1021EE0000C082F001C083F002C084F003C085F00D
:1021FE008707CDD7000E046E000E056E200E066EFC
:10220E00820E076E82C000F083C001F084C002F01F
:10221E0085C003F006DD000ED8B0010E006E005230
:10222E001CE082C000F083C001F084C002F085C0C3
:10223E0003F0CD0E046ECC0E056E4C0E066E7B0EAC
:10224E00076EB7EC0CF000C082F001C083F002C044
:10225E0084F003C085F0872BCDD7FF0E8215086E54
:10226E00FF0E8315096E7F0E84150A6E000E8515FE
:10227E000B6E08C004F009C005F00AC006F00BC0D2
:10228E0007F004360490053606360736000E821522
:10229E00006E000E8315016E000E8415026EFF0E89
:1022AE008515036E00C082F001C083F002C084F079
:1022BE0003C085F004508211006E05508311016E2B
:1022CE0006508411026E07508511036E00C082F015
:1022DE0001C083F002C084F003C085F07F0E855DDF
:1022EE00006E00C081F0010E856F00C004F082C048
:1022FE0000F083C001F084C002F085C003F00450EA
:10230E0007E000360090013602360336FF0FF8D78D
:10231E0000C082F001C083F002C084F003C085F0DB
:10232E007FC0E1FF80C0E2FF8551300FE66E7F4B2C
:10233E00802B800E8719006E800E010A005C08E368
:10234E00800E060A006E800E8719005C01E30AD02B
:10235E007FC0E1FF80C0E2FF2E0EE66E7F4B802B2A
:10236E00010E866F060E816F8151000A54E0856B57
:10237E0082C000F083C001F084C002F085C003F07B
:10238E0000360090013602360336003600900136D4
:10239E0002360336825100268351012284510222D5
:1023AE008551032200C082F001C083F002C084F088
:1023BE0003C085F082C000F083C001F084C002F03B
:1023CE0085C003F00036009001360236033600C099
:1023DE0082F001C083F002C084F003C085F07FC09C
:1023EE00E1FF80C0E2FF8551300FE66E7F4B802B00
:1023FE008651000A0EE187078751000A0AE17FC065
:10240E00E1FF80C0E2FF2E0EE66E7F4B802B010EA9
:10241E00866F8107A9D7FF0E7F25E96EFF0E8021FB
:10242E00EA6EEE50300A05E1010E7F5F000E805B12
:10243E00F2D7FF0E7F25E96EFF0E8021EA6EEE5079
:10244E002E0A04E1010E7F5F000E805B8751000AA9
:10245E0041E07FC0E1FF80C0E2FF650EE66E7F4B7C
:10246E00802B800E8719006E800E000A005C0BE236
:10247E007FC0E1FF80C0E2FF2D0EE66E7F4B802B0A
:10248E0087510008876F87C081F0800E090A006EA1
:10249E00800E8719005C0EE20A0E046E81C000F0F9
:1024AE0027DC7FC0E1FF80C0E2FF0050300FE66EF8
:1024BE007F4B802B0A0E046E81C000F019DC08C021
:1024CE0000F07FC0E1FF80C0E2FF0050300FE66EEB
:1024DE007F4B802B7FC0E1FF80C0E2FFE66A006A7F
:0224EE001200DA
:1024F000FE0E0001606F39EC06F04BC088F0600EF4
:10250000896F000E8A6F010E8B6F000E8C6F8D6BC2
:062510004AEC0DF0120080
:10251600B80E00017B6F250E7C6F000E7D6F180EC6
:102526007E6F260E7F6F000E806F400E816FABDDD3
:06253600DCDFBCDD120039
:10253C0000017B6B3E0E7C6F260E7D6F000E7E6F56
:10254C00B7DC010E00017B6F800E7C6F250E7D6F5A
:0C255C00000E7E6F7F6F6DDCA6DD1200AC
:102568000900F5CFE6FF0006FBE10106F9E11200DC
:10257800DADC00C07BF001C07CF002C07DF003C053
:102588007EF0710E00017F6F000E806F9CDD710E72
:102598007B6F000E7C6F020E7D6FCEEC0EF0B5DC0B
:0225A80012001F
:0E25AA0021EC13F0C6DFB2DFE2DFFED7FFD771
:1026420010EE15F0120E006E010E016E2C0EF66EDB
:0E265200260EF76E000EF86EB4EC12F01200B9
:1025B800A6019C0098019C006C019C0042019C00B3
:1025C80034019C005E019C0050019C0008029C00A4
:1025D800FA019C0024029C0016029C00EC019C005D
:1025E8004A09000092080000B008000054090000E1
:1025F8009C08000062080000A6080000B20700005E
:102608008A070000EC020000F6020000E202000067
:10261800BC0700008803000000030000B406960011
:04262800F005960023
:04262C0000000000AA
:0426300000000000A6
:04263400494E4600C5
:042638004E614E00A1
:02263C0030006C
:04263E00A086010071
:020000040030CA
:0E00000015137F7CF98B91FFFFC0FFE0FF40DE
:00000001FF
